{
  "_format": "hh-sol-artifact-1",
  "contractName": "Lottery",
  "sourceName": "contracts/Lottery.sol",
  "abi": [
    {
      "inputs": [],
      "stateMutability": "nonpayable",
      "type": "constructor"
    },
    {
      "anonymous": false,
      "inputs": [
        {
          "indexed": true,
          "internalType": "address",
          "name": "owner",
          "type": "address"
        },
        {
          "indexed": true,
          "internalType": "address",
          "name": "spender",
          "type": "address"
        },
        {
          "indexed": false,
          "internalType": "uint256",
          "name": "value",
          "type": "uint256"
        }
      ],
      "name": "Approval",
      "type": "event"
    },
    {
      "anonymous": false,
      "inputs": [
        {
          "indexed": true,
          "internalType": "address",
          "name": "previousOwner",
          "type": "address"
        },
        {
          "indexed": true,
          "internalType": "address",
          "name": "newOwner",
          "type": "address"
        }
      ],
      "name": "OwnershipTransferred",
      "type": "event"
    },
    {
      "anonymous": false,
      "inputs": [
        {
          "indexed": true,
          "internalType": "address",
          "name": "from",
          "type": "address"
        },
        {
          "indexed": true,
          "internalType": "address",
          "name": "to",
          "type": "address"
        },
        {
          "indexed": false,
          "internalType": "uint256",
          "name": "value",
          "type": "uint256"
        }
      ],
      "name": "Transfer",
      "type": "event"
    },
    {
      "inputs": [
        {
          "internalType": "address",
          "name": "owner",
          "type": "address"
        },
        {
          "internalType": "address",
          "name": "spender",
          "type": "address"
        }
      ],
      "name": "allowance",
      "outputs": [
        {
          "internalType": "uint256",
          "name": "",
          "type": "uint256"
        }
      ],
      "stateMutability": "view",
      "type": "function"
    },
    {
      "inputs": [
        {
          "internalType": "address",
          "name": "spender",
          "type": "address"
        },
        {
          "internalType": "uint256",
          "name": "amount",
          "type": "uint256"
        }
      ],
      "name": "approve",
      "outputs": [
        {
          "internalType": "bool",
          "name": "",
          "type": "bool"
        }
      ],
      "stateMutability": "nonpayable",
      "type": "function"
    },
    {
      "inputs": [],
      "name": "balanceEthersSC",
      "outputs": [
        {
          "internalType": "uint256",
          "name": "",
          "type": "uint256"
        }
      ],
      "stateMutability": "view",
      "type": "function"
    },
    {
      "inputs": [
        {
          "internalType": "address",
          "name": "account",
          "type": "address"
        }
      ],
      "name": "balanceOf",
      "outputs": [
        {
          "internalType": "uint256",
          "name": "",
          "type": "uint256"
        }
      ],
      "stateMutability": "view",
      "type": "function"
    },
    {
      "inputs": [
        {
          "internalType": "address",
          "name": "_account",
          "type": "address"
        }
      ],
      "name": "balanceTokens",
      "outputs": [
        {
          "internalType": "uint256",
          "name": "",
          "type": "uint256"
        }
      ],
      "stateMutability": "view",
      "type": "function"
    },
    {
      "inputs": [],
      "name": "balanceTokensSC",
      "outputs": [
        {
          "internalType": "uint256",
          "name": "",
          "type": "uint256"
        }
      ],
      "stateMutability": "view",
      "type": "function"
    },
    {
      "inputs": [
        {
          "internalType": "uint256",
          "name": "_numBoletos",
          "type": "uint256"
        }
      ],
      "name": "compraBoleto",
      "outputs": [],
      "stateMutability": "nonpayable",
      "type": "function"
    },
    {
      "inputs": [
        {
          "internalType": "uint256",
          "name": "_numTokens",
          "type": "uint256"
        }
      ],
      "name": "compraTokens",
      "outputs": [],
      "stateMutability": "payable",
      "type": "function"
    },
    {
      "inputs": [],
      "name": "decimals",
      "outputs": [
        {
          "internalType": "uint8",
          "name": "",
          "type": "uint8"
        }
      ],
      "stateMutability": "view",
      "type": "function"
    },
    {
      "inputs": [
        {
          "internalType": "address",
          "name": "spender",
          "type": "address"
        },
        {
          "internalType": "uint256",
          "name": "subtractedValue",
          "type": "uint256"
        }
      ],
      "name": "decreaseAllowance",
      "outputs": [
        {
          "internalType": "bool",
          "name": "",
          "type": "bool"
        }
      ],
      "stateMutability": "nonpayable",
      "type": "function"
    },
    {
      "inputs": [
        {
          "internalType": "uint256",
          "name": "_numTokens",
          "type": "uint256"
        }
      ],
      "name": "devolverTokens",
      "outputs": [],
      "stateMutability": "payable",
      "type": "function"
    },
    {
      "inputs": [],
      "name": "ganador",
      "outputs": [
        {
          "internalType": "address",
          "name": "",
          "type": "address"
        }
      ],
      "stateMutability": "view",
      "type": "function"
    },
    {
      "inputs": [],
      "name": "generarGanador",
      "outputs": [],
      "stateMutability": "nonpayable",
      "type": "function"
    },
    {
      "inputs": [
        {
          "internalType": "address",
          "name": "spender",
          "type": "address"
        },
        {
          "internalType": "uint256",
          "name": "addedValue",
          "type": "uint256"
        }
      ],
      "name": "increaseAllowance",
      "outputs": [
        {
          "internalType": "bool",
          "name": "",
          "type": "bool"
        }
      ],
      "stateMutability": "nonpayable",
      "type": "function"
    },
    {
      "inputs": [
        {
          "internalType": "uint256",
          "name": "_cantidad",
          "type": "uint256"
        }
      ],
      "name": "mint",
      "outputs": [],
      "stateMutability": "nonpayable",
      "type": "function"
    },
    {
      "inputs": [],
      "name": "name",
      "outputs": [
        {
          "internalType": "string",
          "name": "",
          "type": "string"
        }
      ],
      "stateMutability": "view",
      "type": "function"
    },
    {
      "inputs": [],
      "name": "nft",
      "outputs": [
        {
          "internalType": "address",
          "name": "",
          "type": "address"
        }
      ],
      "stateMutability": "view",
      "type": "function"
    },
    {
      "inputs": [],
      "name": "owner",
      "outputs": [
        {
          "internalType": "address",
          "name": "",
          "type": "address"
        }
      ],
      "stateMutability": "view",
      "type": "function"
    },
    {
      "inputs": [],
      "name": "precioBoleto",
      "outputs": [
        {
          "internalType": "uint256",
          "name": "",
          "type": "uint256"
        }
      ],
      "stateMutability": "view",
      "type": "function"
    },
    {
      "inputs": [],
      "name": "renounceOwnership",
      "outputs": [],
      "stateMutability": "nonpayable",
      "type": "function"
    },
    {
      "inputs": [],
      "name": "symbol",
      "outputs": [
        {
          "internalType": "string",
          "name": "",
          "type": "string"
        }
      ],
      "stateMutability": "view",
      "type": "function"
    },
    {
      "inputs": [],
      "name": "totalSupply",
      "outputs": [
        {
          "internalType": "uint256",
          "name": "",
          "type": "uint256"
        }
      ],
      "stateMutability": "view",
      "type": "function"
    },
    {
      "inputs": [
        {
          "internalType": "address",
          "name": "to",
          "type": "address"
        },
        {
          "internalType": "uint256",
          "name": "amount",
          "type": "uint256"
        }
      ],
      "name": "transfer",
      "outputs": [
        {
          "internalType": "bool",
          "name": "",
          "type": "bool"
        }
      ],
      "stateMutability": "nonpayable",
      "type": "function"
    },
    {
      "inputs": [
        {
          "internalType": "address",
          "name": "from",
          "type": "address"
        },
        {
          "internalType": "address",
          "name": "to",
          "type": "address"
        },
        {
          "internalType": "uint256",
          "name": "amount",
          "type": "uint256"
        }
      ],
      "name": "transferFrom",
      "outputs": [
        {
          "internalType": "bool",
          "name": "",
          "type": "bool"
        }
      ],
      "stateMutability": "nonpayable",
      "type": "function"
    },
    {
      "inputs": [
        {
          "internalType": "address",
          "name": "newOwner",
          "type": "address"
        }
      ],
      "name": "transferOwnership",
      "outputs": [],
      "stateMutability": "nonpayable",
      "type": "function"
    },
    {
      "inputs": [
        {
          "internalType": "address",
          "name": "_propietario",
          "type": "address"
        }
      ],
      "name": "tusBoletos",
      "outputs": [
        {
          "internalType": "uint256[]",
          "name": "",
          "type": "uint256[]"
        }
      ],
      "stateMutability": "view",
      "type": "function"
    },
    {
      "inputs": [
        {
          "internalType": "address",
          "name": "_account",
          "type": "address"
        }
      ],
      "name": "usersInfo",
      "outputs": [
        {
          "internalType": "address",
          "name": "",
          "type": "address"
        }
      ],
      "stateMutability": "view",
      "type": "function"
    },
    {
      "inputs": [
        {
          "internalType": "address",
          "name": "",
          "type": "address"
        }
      ],
      "name": "usuario_contract",
      "outputs": [
        {
          "internalType": "address",
          "name": "",
          "type": "address"
        }
      ],
      "stateMutability": "view",
      "type": "function"
    }
  ],
  "bytecode": "0x608060405260056009556000600c553480156200001b57600080fd5b5060408051808201825260078152664c6f747465727960c81b60208083019182528351808501909452600484526352454c4f60e01b90840152815191929162000067916003916200021d565b5080516200007d9060049060208401906200021d565b5050506200009a620000946200010160201b60201c565b62000105565b620000af30683635c9adc5dea0000062000157565b604051620000bd90620002ac565b604051809103906000f080158015620000da573d6000803e3d6000fd5b50600680546001600160a01b0319166001600160a01b039290921691909117905562000333565b3390565b600580546001600160a01b038381166001600160a01b0319831681179093556040519116919082907f8be0079c531659141344cd1fd0a4f28419497f9722a3daafe3b4186f6b6457e090600090a35050565b6001600160a01b038216620001b25760405162461bcd60e51b815260206004820152601f60248201527f45524332303a206d696e7420746f20746865207a65726f206164647265737300604482015260640160405180910390fd5b8060026000828254620001c69190620002d1565b90915550506001600160a01b038216600081815260208181526040808320805486019055518481527fddf252ad1be2c89b69c2b068fc378daa952ba7f163c4a11628f55a4df523b3ef910160405180910390a35050565b8280546200022b90620002f6565b90600052602060002090601f0160209004810192826200024f57600085556200029a565b82601f106200026a57805160ff19168380011785556200029a565b828001600101855582156200029a579182015b828111156200029a5782518255916020019190600101906200027d565b50620002a8929150620002ba565b5090565b6115d38062001e0b83390190565b5b80821115620002a85760008155600101620002bb565b60008219821115620002f157634e487b7160e01b81526011600452602481fd5b500190565b600181811c908216806200030b57607f821691505b602082108114156200032d57634e487b7160e01b600052602260045260246000fd5b50919050565b611ac880620003436000396000f3fe608060405260043610620001db5760003560e01c80639114bde811620000ff578063b934c3841162000095578063e51c9bdf116200006c578063e51c9bdf1462000579578063ee5ade83146200059e578063f2fde38b14620005b6578063f9b4527a14620005db57600080fd5b8063b934c3841462000525578063c29dd7c9146200053d578063dd62ed3e146200055457600080fd5b806395d89b4111620000d657806395d89b41146200049e578063a0712d6814620004b6578063a457c2d714620004db578063a9059cbb146200050057600080fd5b80639114bde81462000424578063912cf304146200044657806392ef10d8146200047a57600080fd5b806339509351116200017557806370a08231116200014c57806370a08231146200039a578063715018a614620003d457806389e25c2814620003ec5780638da5cb5b146200040457600080fd5b806339509351146200031657806347ccca02146200033b5780635d0eaaaf146200035d57600080fd5b806323acfa8111620001b657806323acfa81146200026757806323b872dd14620002ba5780632e95161c14620002df578063313ce56714620002f857600080fd5b806306fdde0314620001e0578063095ea7b3146200021057806318160ddd1462000246575b600080fd5b348015620001ed57600080fd5b50620001f862000600565b6040516200020791906200162e565b60405180910390f35b3480156200021d57600080fd5b50620002356200022f366004620015a3565b6200069a565b604051901515815260200162000207565b3480156200025357600080fd5b506002545b60405190815260200162000207565b3480156200027457600080fd5b50620002a16200028636600462001508565b6008602052600090815260409020546001600160a01b031681565b6040516001600160a01b03909116815260200162000207565b348015620002c757600080fd5b5062000235620002d936600462001563565b620006b4565b620002f6620002f0366004620015cf565b620006dc565b005b3480156200030557600080fd5b506040516012815260200162000207565b3480156200032357600080fd5b506200023562000335366004620015a3565b6200081a565b3480156200034857600080fd5b50600654620002a1906001600160a01b031681565b3480156200036a57600080fd5b50620002a16200037c36600462001508565b6001600160a01b039081166000908152600860205260409020541690565b348015620003a757600080fd5b5062000258620003b936600462001508565b6001600160a01b031660009081526020819052604090205490565b348015620003e157600080fd5b50620002f662000842565b348015620003f957600080fd5b50620002f66200085a565b3480156200041157600080fd5b506005546001600160a01b0316620002a1565b3480156200043157600080fd5b50600754620002a1906001600160a01b031681565b3480156200045357600080fd5b506200046b6200046536600462001508565b620009ff565b604051620002079190620015e8565b3480156200048757600080fd5b503060009081526020819052604090205462000258565b348015620004ab57600080fd5b50620001f862000a72565b348015620004c357600080fd5b50620002f6620004d5366004620015cf565b62000a83565b348015620004e857600080fd5b5062000235620004fa366004620015a3565b62000a9c565b3480156200050d57600080fd5b50620002356200051f366004620015a3565b62000b1d565b3480156200053257600080fd5b506200025862000b2d565b620002f66200054e366004620015cf565b62000b43565b3480156200056157600080fd5b5062000258620005733660046200152c565b62000cb7565b3480156200058657600080fd5b50620002f662000598366004620015cf565b62000ce2565b348015620005ab57600080fd5b506200025860095481565b348015620005c357600080fd5b50620002f6620005d536600462001508565b62000edc565b348015620005e857600080fd5b5062000258620005fa36600462001508565b62000f58565b6060600380546200061190620016f2565b80601f01602080910402602001604051908101604052809291908181526020018280546200063f90620016f2565b8015620006905780601f10620006645761010080835404028352916020019162000690565b820191906000526020600020905b8154815290600101906020018083116200067257829003601f168201915b5050505050905090565b600033620006aa81858562000f78565b5060019392505050565b600033620006c4858285620010a0565b620006d18585856200111b565b506001949350505050565b600081116200074b5760405162461bcd60e51b815260206004820152603060248201527f4e6563657369746173206465766f6c76657220756e206e756d65726f2064652060448201526f0746f6b656e73206d61796f72206120360841b60648201526084015b60405180910390fd5b60006200076182670de0b6b3a7640000620016b6565b90506200076e3362000f58565b811115620007d05760405162461bcd60e51b815260206004820152602860248201527f4e6f207469656e6573206c6f7320746f6b656e732071756520646573656173206044820152673232bb37b63b32b960c11b606482015260840162000742565b620007dd3330836200111b565b336108fc620007ec84620012c6565b6040518115909202916000818181858888f1935050505015801562000815573d6000803e3d6000fd5b505050565b600033620006aa81858562000830838362000cb7565b6200083c919062001684565b62000f78565b6200084c620012dc565b62000858600062001338565b565b62000864620012dc565b600d5480620008b65760405162461bcd60e51b815260206004820152601860248201527f4e6f2068617920626f6c65746f7320636f6d707261646f730000000000000000604482015260640162000742565b60008142604051602001620008cd91815260200190565b6040516020818303038152906040528051906020012060001c620008f291906200174d565b90506000600d82815481106200091857634e487b7160e01b600052603260045260246000fd5b6000918252602080832090910154808352600b909152604090912054600780546001600160a01b0319166001600160a01b0390921691821790559091506108fc60646200096747605f620016b6565b6200097391906200169f565b6040518115909202916000818181858888f193505050501580156200099c573d6000803e3d6000fd5b506005546001600160a01b03166001600160a01b03166108fc6064620009c4476005620016b6565b620009d091906200169f565b6040518115909202916000818181858888f19350505050158015620009f9573d6000803e3d6000fd5b50505050565b6001600160a01b0381166000908152600a602090815260409182902080548351818402810184019094528084526060939283018282801562000a6157602002820191906000526020600020905b81548152602001906001019080831162000a4c575b50505050509050919050565b905090565b6060600480546200061190620016f2565b62000a8d620012dc565b62000a9930826200138a565b50565b6000338162000aac828662000cb7565b90508381101562000b0e5760405162461bcd60e51b815260206004820152602560248201527f45524332303a2064656372656173656420616c6c6f77616e63652062656c6f77604482015264207a65726f60d81b606482015260840162000742565b620006d1828686840362000f78565b600033620006aa8185856200111b565b600062000a6d670de0b6b3a7640000476200169f565b336000908152600860205260409020546001600160a01b031662000b6b5762000b6b6200144d565b600062000b7882620012c6565b90508034101562000bde5760405162461bcd60e51b815260206004820152602960248201527f436f6d707261206d656e6f7320746f6b656e73206f207061676120636f6e206d60448201526861732065746865727360b81b606482015260840162000742565b600062000bf483670de0b6b3a7640000620016b6565b9050600062000c0f3060009081526020819052604090205490565b90508082111562000c635760405162461bcd60e51b815260206004820181905260248201527f436f6d70726120756e206e756d65726f206d656e6f7220646520746f6b656e73604482015260640162000742565b600062000c718434620016d8565b604051909150339082156108fc029083906000818181858888f1935050505015801562000ca2573d6000803e3d6000fd5b5062000cb03033856200111b565b5050505050565b6001600160a01b03918216600090815260016020908152604080832093909416825291909152205490565b60006009548262000cf49190620016b6565b905062000d013362000f58565b81111562000d525760405162461bcd60e51b815260206004820152601c60248201527f4e6f207469656e657320746f6b656e7320737566696369656e74657300000000604482015260640162000742565b62000d5f3330836200111b565b60005b82811015620008155760006127104233600c5460405160200162000dab9392919092835260609190911b6bffffffffffffffffffffffff19166020830152603482015260540190565b6040516020818303038152906040528051906020012060001c62000dd091906200174d565b600c8054919250600062000de4836200172f565b9091555050336000818152600a6020908152604080832080546001808201835591855283852001869055600d805491820190557fd7b6990105719101dabeb77144f2a3385c8033acd3af97e9423a695e81ad1eb501859055848352600b825280832080546001600160a01b0319168517905583835260089091529081902054905163120e852360e01b81526004810192909252602482018390526001600160a01b03169063120e852390604401600060405180830381600087803b15801562000eac57600080fd5b505af115801562000ec1573d6000803e3d6000fd5b5050505050808062000ed3906200172f565b91505062000d62565b62000ee6620012dc565b6001600160a01b03811662000f4d5760405162461bcd60e51b815260206004820152602660248201527f4f776e61626c653a206e6577206f776e657220697320746865207a65726f206160448201526564647265737360d01b606482015260840162000742565b62000a998162001338565b6001600160a01b0381166000908152602081905260408120545b92915050565b6001600160a01b03831662000fdc5760405162461bcd60e51b8152602060048201526024808201527f45524332303a20617070726f76652066726f6d20746865207a65726f206164646044820152637265737360e01b606482015260840162000742565b6001600160a01b0382166200103f5760405162461bcd60e51b815260206004820152602260248201527f45524332303a20617070726f766520746f20746865207a65726f206164647265604482015261737360f01b606482015260840162000742565b6001600160a01b0383811660008181526001602090815260408083209487168084529482529182902085905590518481527f8c5be1e5ebec7d5bd14f71427d1e84f3dd0314c0f7b2291e5b200ac8c7c3b925910160405180910390a3505050565b6000620010ae848462000cb7565b90506000198114620009f957818110156200110c5760405162461bcd60e51b815260206004820152601d60248201527f45524332303a20696e73756666696369656e7420616c6c6f77616e6365000000604482015260640162000742565b620009f9848484840362000f78565b6001600160a01b038316620011815760405162461bcd60e51b815260206004820152602560248201527f45524332303a207472616e736665722066726f6d20746865207a65726f206164604482015264647265737360d81b606482015260840162000742565b6001600160a01b038216620011e55760405162461bcd60e51b815260206004820152602360248201527f45524332303a207472616e7366657220746f20746865207a65726f206164647260448201526265737360e81b606482015260840162000742565b6001600160a01b038316600090815260208190526040902054818110156200125f5760405162461bcd60e51b815260206004820152602660248201527f45524332303a207472616e7366657220616d6f756e7420657863656564732062604482015265616c616e636560d01b606482015260840162000742565b6001600160a01b03848116600081815260208181526040808320878703905593871680835291849020805487019055925185815290927fddf252ad1be2c89b69c2b068fc378daa952ba7f163c4a11628f55a4df523b3ef910160405180910390a3620009f9565b600062000f7282670de0b6b3a7640000620016b6565b6005546001600160a01b03163314620008585760405162461bcd60e51b815260206004820181905260248201527f4f776e61626c653a2063616c6c6572206973206e6f7420746865206f776e6572604482015260640162000742565b600580546001600160a01b038381166001600160a01b0319831681179093556040519116919082907f8be0079c531659141344cd1fd0a4f28419497f9722a3daafe3b4186f6b6457e090600090a35050565b6001600160a01b038216620013e25760405162461bcd60e51b815260206004820152601f60248201527f45524332303a206d696e7420746f20746865207a65726f206164647265737300604482015260640162000742565b8060026000828254620013f6919062001684565b90915550506001600160a01b038216600081815260208181526040808320805486019055518481527fddf252ad1be2c89b69c2b068fc378daa952ba7f163c4a11628f55a4df523b3ef910160405180910390a35050565b600654604051600091339130916001600160a01b0316906200146f90620014dd565b6001600160a01b03938416815291831660208301529091166040820152606001604051809103906000f080158015620014ac573d6000803e3d6000fd5b5033600090815260086020526040902080546001600160a01b0319166001600160a01b039290921691909117905550565b610302806200179183390190565b80356001600160a01b03811681146200150357600080fd5b919050565b6000602082840312156200151a578081fd5b6200152582620014eb565b9392505050565b600080604083850312156200153f578081fd5b6200154a83620014eb565b91506200155a60208401620014eb565b90509250929050565b60008060006060848603121562001578578081fd5b6200158384620014eb565b92506200159360208501620014eb565b9150604084013590509250925092565b60008060408385031215620015b6578182fd5b620015c183620014eb565b946020939093013593505050565b600060208284031215620015e1578081fd5b5035919050565b6020808252825182820181905260009190848201906040850190845b81811015620016225783518352928401929184019160010162001604565b50909695505050505050565b6000602080835283518082850152825b818110156200165c578581018301518582016040015282016200163e565b818111156200166e5783604083870101525b50601f01601f1916929092016040019392505050565b600082198211156200169a576200169a62001764565b500190565b600082620016b157620016b16200177a565b500490565b6000816000190483118215151615620016d357620016d362001764565b500290565b600082821015620016ed57620016ed62001764565b500390565b600181811c908216806200170757607f821691505b602082108114156200172957634e487b7160e01b600052602260045260246000fd5b50919050565b600060001982141562001746576200174662001764565b5060010190565b6000826200175f576200175f6200177a565b500690565b634e487b7160e01b600052601160045260246000fd5b634e487b7160e01b600052601260045260246000fdfe608060405234801561001057600080fd5b5060405161030238038061030283398101604081905261002f916100bd565b604080516080810182526001600160a01b039485168082529385166020820181905292909416908401819052306060909401849052600080546001600160a01b0319908116909417905560018054841690921790915560028054831690911790556003805490911690911790556100ff565b80516001600160a01b03811681146100b857600080fd5b919050565b6000806000606084860312156100d1578283fd5b6100da846100a1565b92506100e8602085016100a1565b91506100f6604085016100a1565b90509250925092565b6101f48061010e6000396000f3fe608060405234801561001057600080fd5b50600436106100365760003560e01c8063120e85231461003b5780633c4f81cd14610050575b600080fd5b61004e610049366004610188565b6100aa565b005b600054600154600254600354610076936001600160a01b03908116938116928116911684565b604080516001600160a01b039586168152938516602085015291841683830152909216606082015290519081900360800190f35b6001546001600160a01b0316331461011e5760405162461bcd60e51b815260206004820152602d60248201527f4e6f207469656e6573207065726d69736f73207061726120656a65637574617260448201526c1032b9ba3090333ab731b4b7b760991b606482015260840160405180910390fd5b600254604051632851206560e21b81526001600160a01b038481166004830152602482018490529091169063a144819490604401600060405180830381600087803b15801561016c57600080fd5b505af1158015610180573d6000803e3d6000fd5b505050505050565b6000806040838503121561019a578182fd5b82356001600160a01b03811681146101b0578283fd5b94602093909301359350505056fea264697066735822122045543592fdf228d0a01c1cf525316d5d121f6b3afc682449fa00ebefa08030d864736f6c63430008040033a2646970667358221220171ec166612d02f6fa9ecce39e923b225df5e36fb46e2a10cdc27d40aed738e164736f6c6343000804003360806040523480156200001157600080fd5b5060408051808201825260078152664c6f747465727960c81b6020808301918252835180850190945260048452634e454c4f60e01b9084015281519192916200005d916000916200008e565b508051620000739060019060208401906200008e565b5050600680546001600160a01b031916331790555062000171565b8280546200009c9062000134565b90600052602060002090601f016020900481019282620000c057600085556200010b565b82601f10620000db57805160ff19168380011785556200010b565b828001600101855582156200010b579182015b828111156200010b578251825591602001919060010190620000ee565b50620001199291506200011d565b5090565b5b808211156200011957600081556001016200011e565b600181811c908216806200014957607f821691505b602082108114156200016b57634e487b7160e01b600052602260045260246000fd5b50919050565b61145280620001816000396000f3fe608060405234801561001057600080fd5b50600436106100f55760003560e01c80636352211e11610097578063a22cb46511610066578063a22cb465146101ff578063b88d4fde14610212578063c87b56dd14610225578063e985e9c51461023857600080fd5b80636352211e146101b057806370a08231146101c357806395d89b41146101e4578063a1448194146101ec57600080fd5b8063095ea7b3116100d3578063095ea7b31461016257806323b872dd1461017757806342842e0e1461018a5780635aa0c73d1461019d57600080fd5b806301ffc9a7146100fa57806306fdde0314610122578063081812fc14610137575b600080fd5b61010d610108366004611195565b610274565b60405190151581526020015b60405180910390f35b61012a6102c6565b604051610119919061127d565b61014a6101453660046111cd565b610358565b6040516001600160a01b039091168152602001610119565b61017561017036600461116a565b61037f565b005b610175610185366004611020565b61049a565b610175610198366004611020565b6104cb565b60065461014a906001600160a01b031681565b61014a6101be3660046111cd565b6104e6565b6101d66101d1366004610fb0565b610546565b604051908152602001610119565b61012a6105cc565b6101756101fa36600461116a565b6105db565b61017561020d366004611139565b6106dc565b610175610220366004611060565b6106e7565b61012a6102333660046111cd565b61071f565b61010d610246366004610fe8565b6001600160a01b03918216600090815260056020908152604080832093909416825291909152205460ff1690565b60006001600160e01b031982166380ac58cd60e01b14806102a557506001600160e01b03198216635b5e139f60e01b145b806102c057506301ffc9a760e01b6001600160e01b03198316145b92915050565b6060600080546102d5906113a0565b80601f0160208091040260200160405190810160405280929190818152602001828054610301906113a0565b801561034e5780601f106103235761010080835404028352916020019161034e565b820191906000526020600020905b81548152906001019060200180831161033157829003601f168201915b5050505050905090565b600061036382610793565b506000908152600460205260409020546001600160a01b031690565b600061038a826104e6565b9050806001600160a01b0316836001600160a01b031614156103fd5760405162461bcd60e51b815260206004820152602160248201527f4552433732313a20617070726f76616c20746f2063757272656e74206f776e656044820152603960f91b60648201526084015b60405180910390fd5b336001600160a01b038216148061041957506104198133610246565b61048b5760405162461bcd60e51b815260206004820152603d60248201527f4552433732313a20617070726f76652063616c6c6572206973206e6f7420746f60448201527f6b656e206f776e6572206f7220617070726f76656420666f7220616c6c00000060648201526084016103f4565b61049583836107f5565b505050565b6104a43382610863565b6104c05760405162461bcd60e51b81526004016103f490611290565b6104958383836108e2565b610495838383604051806020016040528060008152506106e7565b6000818152600260205260408120546001600160a01b0316806102c05760405162461bcd60e51b8152602060048201526018602482015277115490cdcc8c4e881a5b9d985b1a59081d1bdad95b88125160421b60448201526064016103f4565b60006001600160a01b0382166105b05760405162461bcd60e51b815260206004820152602960248201527f4552433732313a2061646472657373207a65726f206973206e6f7420612076616044820152683634b21037bbb732b960b91b60648201526084016103f4565b506001600160a01b031660009081526003602052604090205490565b6060600180546102d5906113a0565b600654604051635d0eaaaf60e01b81526001600160a01b03848116600483015290911690635d0eaaaf9060240160206040518083038186803b15801561062057600080fd5b505afa158015610634573d6000803e3d6000fd5b505050506040513d601f19601f820116820180604052508101906106589190610fcc565b6001600160a01b0316336001600160a01b0316146106ce5760405162461bcd60e51b815260206004820152602d60248201527f4e6f207469656e6573207065726d69736f73207061726120656a65637574617260448201526c1032b9ba3090333ab731b4b7b760991b60648201526084016103f4565b6106d88282610a46565b5050565b6106d8338383610a60565b6106f13383610863565b61070d5760405162461bcd60e51b81526004016103f490611290565b61071984848484610b2f565b50505050565b606061072a82610793565b600061074160408051602081019091526000815290565b90506000815111610761576040518060200160405280600081525061078c565b8061076b84610b62565b60405160200161077c929190611211565b6040516020818303038152906040525b9392505050565b6000818152600260205260409020546001600160a01b03166107f25760405162461bcd60e51b8152602060048201526018602482015277115490cdcc8c4e881a5b9d985b1a59081d1bdad95b88125160421b60448201526064016103f4565b50565b600081815260046020526040902080546001600160a01b0319166001600160a01b038416908117909155819061082a826104e6565b6001600160a01b03167f8c5be1e5ebec7d5bd14f71427d1e84f3dd0314c0f7b2291e5b200ac8c7c3b92560405160405180910390a45050565b60008061086f836104e6565b9050806001600160a01b0316846001600160a01b031614806108b657506001600160a01b0380821660009081526005602090815260408083209388168352929052205460ff165b806108da5750836001600160a01b03166108cf84610358565b6001600160a01b0316145b949350505050565b826001600160a01b03166108f5826104e6565b6001600160a01b03161461091b5760405162461bcd60e51b81526004016103f49061132f565b6001600160a01b03821661097d5760405162461bcd60e51b8152602060048201526024808201527f4552433732313a207472616e7366657220746f20746865207a65726f206164646044820152637265737360e01b60648201526084016103f4565b826001600160a01b0316610990826104e6565b6001600160a01b0316146109b65760405162461bcd60e51b81526004016103f49061132f565b600081815260046020908152604080832080546001600160a01b03199081169091556001600160a01b0387811680865260038552838620805460001901905590871680865283862080546001019055868652600290945282852080549092168417909155905184937fddf252ad1be2c89b69c2b068fc378daa952ba7f163c4a11628f55a4df523b3ef91a4505050565b6106d8828260405180602001604052806000815250610c0d565b816001600160a01b0316836001600160a01b03161415610ac25760405162461bcd60e51b815260206004820152601960248201527f4552433732313a20617070726f766520746f2063616c6c65720000000000000060448201526064016103f4565b6001600160a01b03838116600081815260056020908152604080832094871680845294825291829020805460ff191686151590811790915591519182527f17307eab39ab6107e8899845ad3d59bd9653f200f220920489ca2b5937696c31910160405180910390a3505050565b610b3a8484846108e2565b610b4684848484610c40565b6107195760405162461bcd60e51b81526004016103f4906112dd565b60606000610b6f83610d4d565b600101905060008167ffffffffffffffff811115610b9d57634e487b7160e01b600052604160045260246000fd5b6040519080825280601f01601f191660200182016040528015610bc7576020820181803683370190505b5090508181016020015b600019016f181899199a1a9b1b9c1cb0b131b232b360811b600a86061a8153600a8504945084610c0057610c05565b610bd1565b509392505050565b610c178383610e25565b610c246000848484610c40565b6104955760405162461bcd60e51b81526004016103f4906112dd565b60006001600160a01b0384163b15610d4257604051630a85bd0160e11b81526001600160a01b0385169063150b7a0290610c84903390899088908890600401611240565b602060405180830381600087803b158015610c9e57600080fd5b505af1925050508015610cce575060408051601f3d908101601f19168201909252610ccb918101906111b1565b60015b610d28573d808015610cfc576040519150601f19603f3d011682016040523d82523d6000602084013e610d01565b606091505b508051610d205760405162461bcd60e51b81526004016103f4906112dd565b805181602001fd5b6001600160e01b031916630a85bd0160e11b1490506108da565b506001949350505050565b60008072184f03e93ff9f4daa797ed6e38ed64bf6a1f0160401b8310610d8c5772184f03e93ff9f4daa797ed6e38ed64bf6a1f0160401b830492506040015b6d04ee2d6d415b85acef81000000008310610db8576d04ee2d6d415b85acef8100000000830492506020015b662386f26fc100008310610dd657662386f26fc10000830492506010015b6305f5e1008310610dee576305f5e100830492506008015b6127108310610e0257612710830492506004015b60648310610e14576064830492506002015b600a83106102c05760010192915050565b6001600160a01b038216610e7b5760405162461bcd60e51b815260206004820181905260248201527f4552433732313a206d696e7420746f20746865207a65726f206164647265737360448201526064016103f4565b6000818152600260205260409020546001600160a01b031615610ee05760405162461bcd60e51b815260206004820152601c60248201527f4552433732313a20746f6b656e20616c7265616479206d696e7465640000000060448201526064016103f4565b6000818152600260205260409020546001600160a01b031615610f455760405162461bcd60e51b815260206004820152601c60248201527f4552433732313a20746f6b656e20616c7265616479206d696e7465640000000060448201526064016103f4565b6001600160a01b038216600081815260036020908152604080832080546001019055848352600290915280822080546001600160a01b0319168417905551839291907fddf252ad1be2c89b69c2b068fc378daa952ba7f163c4a11628f55a4df523b3ef908290a45050565b600060208284031215610fc1578081fd5b813561078c816113f1565b600060208284031215610fdd578081fd5b815161078c816113f1565b60008060408385031215610ffa578081fd5b8235611005816113f1565b91506020830135611015816113f1565b809150509250929050565b600080600060608486031215611034578081fd5b833561103f816113f1565b9250602084013561104f816113f1565b929592945050506040919091013590565b60008060008060808587031215611075578081fd5b8435611080816113f1565b93506020850135611090816113f1565b925060408501359150606085013567ffffffffffffffff808211156110b3578283fd5b818701915087601f8301126110c6578283fd5b8135818111156110d8576110d86113db565b604051601f8201601f19908116603f01168101908382118183101715611100576111006113db565b816040528281528a6020848701011115611118578586fd5b82602086016020830137918201602001949094529598949750929550505050565b6000806040838503121561114b578182fd5b8235611156816113f1565b915060208301358015158114611015578182fd5b6000806040838503121561117c578182fd5b8235611187816113f1565b946020939093013593505050565b6000602082840312156111a6578081fd5b813561078c81611406565b6000602082840312156111c2578081fd5b815161078c81611406565b6000602082840312156111de578081fd5b5035919050565b600081518084526111fd816020860160208601611374565b601f01601f19169290920160200192915050565b60008351611223818460208801611374565b835190830190611237818360208801611374565b01949350505050565b6001600160a01b0385811682528416602082015260408101839052608060608201819052600090611273908301846111e5565b9695505050505050565b60208152600061078c60208301846111e5565b6020808252602d908201527f4552433732313a2063616c6c6572206973206e6f7420746f6b656e206f776e6560408201526c1c881bdc88185c1c1c9bdd9959609a1b606082015260800190565b60208082526032908201527f4552433732313a207472616e7366657220746f206e6f6e20455243373231526560408201527131b2b4bb32b91034b6b83632b6b2b73a32b960711b606082015260800190565b60208082526025908201527f4552433732313a207472616e736665722066726f6d20696e636f72726563742060408201526437bbb732b960d91b606082015260800190565b60005b8381101561138f578181015183820152602001611377565b838111156107195750506000910152565b600181811c908216806113b457607f821691505b602082108114156113d557634e487b7160e01b600052602260045260246000fd5b50919050565b634e487b7160e01b600052604160045260246000fd5b6001600160a01b03811681146107f257600080fd5b6001600160e01b0319811681146107f257600080fdfea2646970667358221220cacbdbbc7a79a9831a97c0a894d7d0c74f94a319a48a3561841b7ee51936f4da64736f6c63430008040033",
  "linkReferences": {},
  "deployedLinkReferences": {}
}