{
  "_format": "hh-sol-artifact-1",
  "contractName": "mainERC721",
  "sourceName": "contracts/Lottery.sol",
  "abi": [
    {
      "inputs": [],
      "stateMutability": "nonpayable",
      "type": "constructor"
    },
    {
      "anonymous": false,
      "inputs": [
        {
          "indexed": true,
          "internalType": "address",
          "name": "owner",
          "type": "address"
        },
        {
          "indexed": true,
          "internalType": "address",
          "name": "approved",
          "type": "address"
        },
        {
          "indexed": true,
          "internalType": "uint256",
          "name": "tokenId",
          "type": "uint256"
        }
      ],
      "name": "Approval",
      "type": "event"
    },
    {
      "anonymous": false,
      "inputs": [
        {
          "indexed": true,
          "internalType": "address",
          "name": "owner",
          "type": "address"
        },
        {
          "indexed": true,
          "internalType": "address",
          "name": "operator",
          "type": "address"
        },
        {
          "indexed": false,
          "internalType": "bool",
          "name": "approved",
          "type": "bool"
        }
      ],
      "name": "ApprovalForAll",
      "type": "event"
    },
    {
      "anonymous": false,
      "inputs": [
        {
          "indexed": true,
          "internalType": "address",
          "name": "from",
          "type": "address"
        },
        {
          "indexed": true,
          "internalType": "address",
          "name": "to",
          "type": "address"
        },
        {
          "indexed": true,
          "internalType": "uint256",
          "name": "tokenId",
          "type": "uint256"
        }
      ],
      "name": "Transfer",
      "type": "event"
    },
    {
      "inputs": [
        {
          "internalType": "address",
          "name": "to",
          "type": "address"
        },
        {
          "internalType": "uint256",
          "name": "tokenId",
          "type": "uint256"
        }
      ],
      "name": "approve",
      "outputs": [],
      "stateMutability": "nonpayable",
      "type": "function"
    },
    {
      "inputs": [
        {
          "internalType": "address",
          "name": "owner",
          "type": "address"
        }
      ],
      "name": "balanceOf",
      "outputs": [
        {
          "internalType": "uint256",
          "name": "",
          "type": "uint256"
        }
      ],
      "stateMutability": "view",
      "type": "function"
    },
    {
      "inputs": [],
      "name": "direccionLoteria",
      "outputs": [
        {
          "internalType": "address",
          "name": "",
          "type": "address"
        }
      ],
      "stateMutability": "view",
      "type": "function"
    },
    {
      "inputs": [
        {
          "internalType": "uint256",
          "name": "tokenId",
          "type": "uint256"
        }
      ],
      "name": "getApproved",
      "outputs": [
        {
          "internalType": "address",
          "name": "",
          "type": "address"
        }
      ],
      "stateMutability": "view",
      "type": "function"
    },
    {
      "inputs": [
        {
          "internalType": "address",
          "name": "owner",
          "type": "address"
        },
        {
          "internalType": "address",
          "name": "operator",
          "type": "address"
        }
      ],
      "name": "isApprovedForAll",
      "outputs": [
        {
          "internalType": "bool",
          "name": "",
          "type": "bool"
        }
      ],
      "stateMutability": "view",
      "type": "function"
    },
    {
      "inputs": [],
      "name": "name",
      "outputs": [
        {
          "internalType": "string",
          "name": "",
          "type": "string"
        }
      ],
      "stateMutability": "view",
      "type": "function"
    },
    {
      "inputs": [
        {
          "internalType": "uint256",
          "name": "tokenId",
          "type": "uint256"
        }
      ],
      "name": "ownerOf",
      "outputs": [
        {
          "internalType": "address",
          "name": "",
          "type": "address"
        }
      ],
      "stateMutability": "view",
      "type": "function"
    },
    {
      "inputs": [
        {
          "internalType": "address",
          "name": "_propietario",
          "type": "address"
        },
        {
          "internalType": "uint256",
          "name": "_boleto",
          "type": "uint256"
        }
      ],
      "name": "safeMint",
      "outputs": [],
      "stateMutability": "nonpayable",
      "type": "function"
    },
    {
      "inputs": [
        {
          "internalType": "address",
          "name": "from",
          "type": "address"
        },
        {
          "internalType": "address",
          "name": "to",
          "type": "address"
        },
        {
          "internalType": "uint256",
          "name": "tokenId",
          "type": "uint256"
        }
      ],
      "name": "safeTransferFrom",
      "outputs": [],
      "stateMutability": "nonpayable",
      "type": "function"
    },
    {
      "inputs": [
        {
          "internalType": "address",
          "name": "from",
          "type": "address"
        },
        {
          "internalType": "address",
          "name": "to",
          "type": "address"
        },
        {
          "internalType": "uint256",
          "name": "tokenId",
          "type": "uint256"
        },
        {
          "internalType": "bytes",
          "name": "data",
          "type": "bytes"
        }
      ],
      "name": "safeTransferFrom",
      "outputs": [],
      "stateMutability": "nonpayable",
      "type": "function"
    },
    {
      "inputs": [
        {
          "internalType": "address",
          "name": "operator",
          "type": "address"
        },
        {
          "internalType": "bool",
          "name": "approved",
          "type": "bool"
        }
      ],
      "name": "setApprovalForAll",
      "outputs": [],
      "stateMutability": "nonpayable",
      "type": "function"
    },
    {
      "inputs": [
        {
          "internalType": "bytes4",
          "name": "interfaceId",
          "type": "bytes4"
        }
      ],
      "name": "supportsInterface",
      "outputs": [
        {
          "internalType": "bool",
          "name": "",
          "type": "bool"
        }
      ],
      "stateMutability": "view",
      "type": "function"
    },
    {
      "inputs": [],
      "name": "symbol",
      "outputs": [
        {
          "internalType": "string",
          "name": "",
          "type": "string"
        }
      ],
      "stateMutability": "view",
      "type": "function"
    },
    {
      "inputs": [
        {
          "internalType": "uint256",
          "name": "tokenId",
          "type": "uint256"
        }
      ],
      "name": "tokenURI",
      "outputs": [
        {
          "internalType": "string",
          "name": "",
          "type": "string"
        }
      ],
      "stateMutability": "view",
      "type": "function"
    },
    {
      "inputs": [
        {
          "internalType": "address",
          "name": "from",
          "type": "address"
        },
        {
          "internalType": "address",
          "name": "to",
          "type": "address"
        },
        {
          "internalType": "uint256",
          "name": "tokenId",
          "type": "uint256"
        }
      ],
      "name": "transferFrom",
      "outputs": [],
      "stateMutability": "nonpayable",
      "type": "function"
    }
  ],
  "bytecode": "0x60806040523480156200001157600080fd5b5060408051808201825260078152664c6f747465727960c81b6020808301918252835180850190945260048452634e454c4f60e01b9084015281519192916200005d916000916200008e565b508051620000739060019060208401906200008e565b5050600680546001600160a01b031916331790555062000171565b8280546200009c9062000134565b90600052602060002090601f016020900481019282620000c057600085556200010b565b82601f10620000db57805160ff19168380011785556200010b565b828001600101855582156200010b579182015b828111156200010b578251825591602001919060010190620000ee565b50620001199291506200011d565b5090565b5b808211156200011957600081556001016200011e565b600181811c908216806200014957607f821691505b602082108114156200016b57634e487b7160e01b600052602260045260246000fd5b50919050565b61145280620001816000396000f3fe608060405234801561001057600080fd5b50600436106100f55760003560e01c80636352211e11610097578063a22cb46511610066578063a22cb465146101ff578063b88d4fde14610212578063c87b56dd14610225578063e985e9c51461023857600080fd5b80636352211e146101b057806370a08231146101c357806395d89b41146101e4578063a1448194146101ec57600080fd5b8063095ea7b3116100d3578063095ea7b31461016257806323b872dd1461017757806342842e0e1461018a5780635aa0c73d1461019d57600080fd5b806301ffc9a7146100fa57806306fdde0314610122578063081812fc14610137575b600080fd5b61010d610108366004611195565b610274565b60405190151581526020015b60405180910390f35b61012a6102c6565b604051610119919061127d565b61014a6101453660046111cd565b610358565b6040516001600160a01b039091168152602001610119565b61017561017036600461116a565b61037f565b005b610175610185366004611020565b61049a565b610175610198366004611020565b6104cb565b60065461014a906001600160a01b031681565b61014a6101be3660046111cd565b6104e6565b6101d66101d1366004610fb0565b610546565b604051908152602001610119565b61012a6105cc565b6101756101fa36600461116a565b6105db565b61017561020d366004611139565b6106dc565b610175610220366004611060565b6106e7565b61012a6102333660046111cd565b61071f565b61010d610246366004610fe8565b6001600160a01b03918216600090815260056020908152604080832093909416825291909152205460ff1690565b60006001600160e01b031982166380ac58cd60e01b14806102a557506001600160e01b03198216635b5e139f60e01b145b806102c057506301ffc9a760e01b6001600160e01b03198316145b92915050565b6060600080546102d5906113a0565b80601f0160208091040260200160405190810160405280929190818152602001828054610301906113a0565b801561034e5780601f106103235761010080835404028352916020019161034e565b820191906000526020600020905b81548152906001019060200180831161033157829003601f168201915b5050505050905090565b600061036382610793565b506000908152600460205260409020546001600160a01b031690565b600061038a826104e6565b9050806001600160a01b0316836001600160a01b031614156103fd5760405162461bcd60e51b815260206004820152602160248201527f4552433732313a20617070726f76616c20746f2063757272656e74206f776e656044820152603960f91b60648201526084015b60405180910390fd5b336001600160a01b038216148061041957506104198133610246565b61048b5760405162461bcd60e51b815260206004820152603d60248201527f4552433732313a20617070726f76652063616c6c6572206973206e6f7420746f60448201527f6b656e206f776e6572206f7220617070726f76656420666f7220616c6c00000060648201526084016103f4565b61049583836107f5565b505050565b6104a43382610863565b6104c05760405162461bcd60e51b81526004016103f490611290565b6104958383836108e2565b610495838383604051806020016040528060008152506106e7565b6000818152600260205260408120546001600160a01b0316806102c05760405162461bcd60e51b8152602060048201526018602482015277115490cdcc8c4e881a5b9d985b1a59081d1bdad95b88125160421b60448201526064016103f4565b60006001600160a01b0382166105b05760405162461bcd60e51b815260206004820152602960248201527f4552433732313a2061646472657373207a65726f206973206e6f7420612076616044820152683634b21037bbb732b960b91b60648201526084016103f4565b506001600160a01b031660009081526003602052604090205490565b6060600180546102d5906113a0565b600654604051635d0eaaaf60e01b81526001600160a01b03848116600483015290911690635d0eaaaf9060240160206040518083038186803b15801561062057600080fd5b505afa158015610634573d6000803e3d6000fd5b505050506040513d601f19601f820116820180604052508101906106589190610fcc565b6001600160a01b0316336001600160a01b0316146106ce5760405162461bcd60e51b815260206004820152602d60248201527f4e6f207469656e6573207065726d69736f73207061726120656a65637574617260448201526c1032b9ba3090333ab731b4b7b760991b60648201526084016103f4565b6106d88282610a46565b5050565b6106d8338383610a60565b6106f13383610863565b61070d5760405162461bcd60e51b81526004016103f490611290565b61071984848484610b2f565b50505050565b606061072a82610793565b600061074160408051602081019091526000815290565b90506000815111610761576040518060200160405280600081525061078c565b8061076b84610b62565b60405160200161077c929190611211565b6040516020818303038152906040525b9392505050565b6000818152600260205260409020546001600160a01b03166107f25760405162461bcd60e51b8152602060048201526018602482015277115490cdcc8c4e881a5b9d985b1a59081d1bdad95b88125160421b60448201526064016103f4565b50565b600081815260046020526040902080546001600160a01b0319166001600160a01b038416908117909155819061082a826104e6565b6001600160a01b03167f8c5be1e5ebec7d5bd14f71427d1e84f3dd0314c0f7b2291e5b200ac8c7c3b92560405160405180910390a45050565b60008061086f836104e6565b9050806001600160a01b0316846001600160a01b031614806108b657506001600160a01b0380821660009081526005602090815260408083209388168352929052205460ff165b806108da5750836001600160a01b03166108cf84610358565b6001600160a01b0316145b949350505050565b826001600160a01b03166108f5826104e6565b6001600160a01b03161461091b5760405162461bcd60e51b81526004016103f49061132f565b6001600160a01b03821661097d5760405162461bcd60e51b8152602060048201526024808201527f4552433732313a207472616e7366657220746f20746865207a65726f206164646044820152637265737360e01b60648201526084016103f4565b826001600160a01b0316610990826104e6565b6001600160a01b0316146109b65760405162461bcd60e51b81526004016103f49061132f565b600081815260046020908152604080832080546001600160a01b03199081169091556001600160a01b0387811680865260038552838620805460001901905590871680865283862080546001019055868652600290945282852080549092168417909155905184937fddf252ad1be2c89b69c2b068fc378daa952ba7f163c4a11628f55a4df523b3ef91a4505050565b6106d8828260405180602001604052806000815250610c0d565b816001600160a01b0316836001600160a01b03161415610ac25760405162461bcd60e51b815260206004820152601960248201527f4552433732313a20617070726f766520746f2063616c6c65720000000000000060448201526064016103f4565b6001600160a01b03838116600081815260056020908152604080832094871680845294825291829020805460ff191686151590811790915591519182527f17307eab39ab6107e8899845ad3d59bd9653f200f220920489ca2b5937696c31910160405180910390a3505050565b610b3a8484846108e2565b610b4684848484610c40565b6107195760405162461bcd60e51b81526004016103f4906112dd565b60606000610b6f83610d4d565b600101905060008167ffffffffffffffff811115610b9d57634e487b7160e01b600052604160045260246000fd5b6040519080825280601f01601f191660200182016040528015610bc7576020820181803683370190505b5090508181016020015b600019016f181899199a1a9b1b9c1cb0b131b232b360811b600a86061a8153600a8504945084610c0057610c05565b610bd1565b509392505050565b610c178383610e25565b610c246000848484610c40565b6104955760405162461bcd60e51b81526004016103f4906112dd565b60006001600160a01b0384163b15610d4257604051630a85bd0160e11b81526001600160a01b0385169063150b7a0290610c84903390899088908890600401611240565b602060405180830381600087803b158015610c9e57600080fd5b505af1925050508015610cce575060408051601f3d908101601f19168201909252610ccb918101906111b1565b60015b610d28573d808015610cfc576040519150601f19603f3d011682016040523d82523d6000602084013e610d01565b606091505b508051610d205760405162461bcd60e51b81526004016103f4906112dd565b805181602001fd5b6001600160e01b031916630a85bd0160e11b1490506108da565b506001949350505050565b60008072184f03e93ff9f4daa797ed6e38ed64bf6a1f0160401b8310610d8c5772184f03e93ff9f4daa797ed6e38ed64bf6a1f0160401b830492506040015b6d04ee2d6d415b85acef81000000008310610db8576d04ee2d6d415b85acef8100000000830492506020015b662386f26fc100008310610dd657662386f26fc10000830492506010015b6305f5e1008310610dee576305f5e100830492506008015b6127108310610e0257612710830492506004015b60648310610e14576064830492506002015b600a83106102c05760010192915050565b6001600160a01b038216610e7b5760405162461bcd60e51b815260206004820181905260248201527f4552433732313a206d696e7420746f20746865207a65726f206164647265737360448201526064016103f4565b6000818152600260205260409020546001600160a01b031615610ee05760405162461bcd60e51b815260206004820152601c60248201527f4552433732313a20746f6b656e20616c7265616479206d696e7465640000000060448201526064016103f4565b6000818152600260205260409020546001600160a01b031615610f455760405162461bcd60e51b815260206004820152601c60248201527f4552433732313a20746f6b656e20616c7265616479206d696e7465640000000060448201526064016103f4565b6001600160a01b038216600081815260036020908152604080832080546001019055848352600290915280822080546001600160a01b0319168417905551839291907fddf252ad1be2c89b69c2b068fc378daa952ba7f163c4a11628f55a4df523b3ef908290a45050565b600060208284031215610fc1578081fd5b813561078c816113f1565b600060208284031215610fdd578081fd5b815161078c816113f1565b60008060408385031215610ffa578081fd5b8235611005816113f1565b91506020830135611015816113f1565b809150509250929050565b600080600060608486031215611034578081fd5b833561103f816113f1565b9250602084013561104f816113f1565b929592945050506040919091013590565b60008060008060808587031215611075578081fd5b8435611080816113f1565b93506020850135611090816113f1565b925060408501359150606085013567ffffffffffffffff808211156110b3578283fd5b818701915087601f8301126110c6578283fd5b8135818111156110d8576110d86113db565b604051601f8201601f19908116603f01168101908382118183101715611100576111006113db565b816040528281528a6020848701011115611118578586fd5b82602086016020830137918201602001949094529598949750929550505050565b6000806040838503121561114b578182fd5b8235611156816113f1565b915060208301358015158114611015578182fd5b6000806040838503121561117c578182fd5b8235611187816113f1565b946020939093013593505050565b6000602082840312156111a6578081fd5b813561078c81611406565b6000602082840312156111c2578081fd5b815161078c81611406565b6000602082840312156111de578081fd5b5035919050565b600081518084526111fd816020860160208601611374565b601f01601f19169290920160200192915050565b60008351611223818460208801611374565b835190830190611237818360208801611374565b01949350505050565b6001600160a01b0385811682528416602082015260408101839052608060608201819052600090611273908301846111e5565b9695505050505050565b60208152600061078c60208301846111e5565b6020808252602d908201527f4552433732313a2063616c6c6572206973206e6f7420746f6b656e206f776e6560408201526c1c881bdc88185c1c1c9bdd9959609a1b606082015260800190565b60208082526032908201527f4552433732313a207472616e7366657220746f206e6f6e20455243373231526560408201527131b2b4bb32b91034b6b83632b6b2b73a32b960711b606082015260800190565b60208082526025908201527f4552433732313a207472616e736665722066726f6d20696e636f72726563742060408201526437bbb732b960d91b606082015260800190565b60005b8381101561138f578181015183820152602001611377565b838111156107195750506000910152565b600181811c908216806113b457607f821691505b602082108114156113d557634e487b7160e01b600052602260045260246000fd5b50919050565b634e487b7160e01b600052604160045260246000fd5b6001600160a01b03811681146107f257600080fd5b6001600160e01b0319811681146107f257600080fdfea2646970667358221220cacbdbbc7a79a9831a97c0a894d7d0c74f94a319a48a3561841b7ee51936f4da64736f6c63430008040033",
  "linkReferences": {},
  "deployedLinkReferences": {}
}