{
  "_format": "hh-sol-artifact-1",
  "contractName": "MasterChefToken",
  "sourceName": "contracts/MasterChefToken.sol",
  "abi": [
    {
      "inputs": [
        {
          "internalType": "contract DamcStakedToken",
          "name": "_damcToken",
          "type": "address"
        },
        {
          "internalType": "contract ReyRewardToken",
          "name": "_reyToken",
          "type": "address"
        }
      ],
      "stateMutability": "nonpayable",
      "type": "constructor"
    },
    {
      "inputs": [],
      "name": "damcToken",
      "outputs": [
        {
          "internalType": "contract DamcStakedToken",
          "name": "",
          "type": "address"
        }
      ],
      "stateMutability": "view",
      "type": "function"
    },
    {
      "inputs": [
        {
          "internalType": "address",
          "name": "",
          "type": "address"
        }
      ],
      "name": "hasStaked",
      "outputs": [
        {
          "internalType": "bool",
          "name": "",
          "type": "bool"
        }
      ],
      "stateMutability": "view",
      "type": "function"
    },
    {
      "inputs": [
        {
          "internalType": "address",
          "name": "",
          "type": "address"
        }
      ],
      "name": "isStaking",
      "outputs": [
        {
          "internalType": "bool",
          "name": "",
          "type": "bool"
        }
      ],
      "stateMutability": "view",
      "type": "function"
    },
    {
      "inputs": [],
      "name": "issueTokens",
      "outputs": [],
      "stateMutability": "nonpayable",
      "type": "function"
    },
    {
      "inputs": [],
      "name": "name",
      "outputs": [
        {
          "internalType": "string",
          "name": "",
          "type": "string"
        }
      ],
      "stateMutability": "view",
      "type": "function"
    },
    {
      "inputs": [],
      "name": "owner",
      "outputs": [
        {
          "internalType": "address",
          "name": "",
          "type": "address"
        }
      ],
      "stateMutability": "view",
      "type": "function"
    },
    {
      "inputs": [],
      "name": "reyToken",
      "outputs": [
        {
          "internalType": "contract ReyRewardToken",
          "name": "",
          "type": "address"
        }
      ],
      "stateMutability": "view",
      "type": "function"
    },
    {
      "inputs": [
        {
          "internalType": "uint256",
          "name": "_amount",
          "type": "uint256"
        }
      ],
      "name": "stakeTokens",
      "outputs": [],
      "stateMutability": "nonpayable",
      "type": "function"
    },
    {
      "inputs": [
        {
          "internalType": "uint256",
          "name": "",
          "type": "uint256"
        }
      ],
      "name": "stakers",
      "outputs": [
        {
          "internalType": "address",
          "name": "",
          "type": "address"
        }
      ],
      "stateMutability": "view",
      "type": "function"
    },
    {
      "inputs": [
        {
          "internalType": "address",
          "name": "",
          "type": "address"
        }
      ],
      "name": "stakingBalance",
      "outputs": [
        {
          "internalType": "uint256",
          "name": "",
          "type": "uint256"
        }
      ],
      "stateMutability": "view",
      "type": "function"
    },
    {
      "inputs": [],
      "name": "unstakeTokens",
      "outputs": [],
      "stateMutability": "nonpayable",
      "type": "function"
    }
  ],
  "bytecode": "0x60c0604052601160808190527026b0b9ba32b91021b432b3102a37b5b2b760791b60a0908152610032916000919061009f565b5034801561003f57600080fd5b506040516109c93803806109c983398101604081905261005e91610138565b600380546001600160a01b039384166001600160a01b03199182161790915560028054929093169181169190911790915560018054909116331790556101c4565b8280546100ab90610171565b90600052602060002090601f0160209004810192826100cd5760008555610113565b82601f106100e657805160ff1916838001178555610113565b82800160010185558215610113579182015b828111156101135782518255916020019190600101906100f8565b5061011f929150610123565b5090565b5b8082111561011f5760008155600101610124565b6000806040838503121561014a578182fd5b8251610155816101ac565b6020840151909250610166816101ac565b809150509250929050565b600181811c9082168061018557607f821691505b602082108114156101a657634e487b7160e01b600052602260045260246000fd5b50919050565b6001600160a01b03811681146101c157600080fd5b50565b6107f6806101d36000396000f3fe608060405234801561001057600080fd5b50600436106100a95760003560e01c80636f49712b116100715780636f49712b146101425780637547c7a3146101755780638da5cb5b14610188578063a5ce413b1461019b578063c93c8f34146101a3578063fd5e6dd1146101c657600080fd5b806306fdde03146100ae57806345bc78ab146100cc57806359416d31146100fa57806360ab5852146101255780636e2e341b1461012f575b600080fd5b6100b66101d9565b6040516100c391906106e9565b60405180910390f35b6100ec6100da366004610683565b60056020526000908152604090205481565b6040519081526020016100c3565b60025461010d906001600160a01b031681565b6040516001600160a01b0390911681526020016100c3565b61012d610267565b005b60035461010d906001600160a01b031681565b610165610150366004610683565b60076020526000908152604090205460ff1681565b60405190151581526020016100c3565b61012d6101833660046106d1565b6103b7565b60015461010d906001600160a01b031681565b61012d610550565b6101656101b1366004610683565b60066020526000908152604090205460ff1681565b61010d6101d43660046106d1565b610659565b600080546101e690610754565b80601f016020809104026020016040519081016040528092919081815260200182805461021290610754565b801561025f5780601f106102345761010080835404028352916020019161025f565b820191906000526020600020905b81548152906001019060200180831161024257829003601f168201915b505050505081565b6001546001600160a01b031633146102b95760405162461bcd60e51b815260206004820152601060248201526f27379032b932b99032b61037bbb732b960811b60448201526064015b60405180910390fd5b60005b6004548110156103b4576000600482815481106102e957634e487b7160e01b600052603260045260246000fd5b60009182526020808320909101546001600160a01b03168083526005909152604090912054909150801561039f5760025460405163a9059cbb60e01b81526001600160a01b038481166004830152602482018490529091169063a9059cbb90604401602060405180830381600087803b15801561036557600080fd5b505af1158015610379573d6000803e3d6000fd5b505050506040513d601f19601f8201168201806040525081019061039d91906106b1565b505b505080806103ac9061078f565b9150506102bc565b50565b600081116104125760405162461bcd60e51b815260206004820152602260248201527f4c612063616e7469646164206e6f20707565646520736572206d656e6f722061604482015261020360f41b60648201526084016102b0565b6003546040516323b872dd60e01b8152336004820152306024820152604481018390526001600160a01b03909116906323b872dd90606401602060405180830381600087803b15801561046457600080fd5b505af1158015610478573d6000803e3d6000fd5b505050506040513d601f19601f8201168201806040525081019061049c91906106b1565b5033600090815260056020526040812080548392906104bc90849061073c565b90915550503360009081526006602052604090205460ff1661051b57600480546001810182556000919091527f8a35acfbc15ff81a39ae7d344fd709f28e8600b4aa8c65c6b64bfe7fe36bd19b0180546001600160a01b031916331790555b503360009081526007602090815260408083208054600160ff1991821681179092556006909352922080549091169091179055565b33600090815260056020526040902054806105ad5760405162461bcd60e51b815260206004820152601b60248201527f456c2062616c616e63652064656c207374616b696e672065732030000000000060448201526064016102b0565b60035460405163a9059cbb60e01b8152336004820152602481018390526001600160a01b039091169063a9059cbb90604401602060405180830381600087803b1580156105f957600080fd5b505af115801561060d573d6000803e3d6000fd5b505050506040513d601f19601f8201168201806040525081019061063191906106b1565b505033600090815260056020908152604080832083905560079091529020805460ff19169055565b6004818154811061066957600080fd5b6000918252602090912001546001600160a01b0316905081565b600060208284031215610694578081fd5b81356001600160a01b03811681146106aa578182fd5b9392505050565b6000602082840312156106c2578081fd5b815180151581146106aa578182fd5b6000602082840312156106e2578081fd5b5035919050565b6000602080835283518082850152825b81811015610715578581018301518582016040015282016106f9565b818111156107265783604083870101525b50601f01601f1916929092016040019392505050565b6000821982111561074f5761074f6107aa565b500190565b600181811c9082168061076857607f821691505b6020821081141561078957634e487b7160e01b600052602260045260246000fd5b50919050565b60006000198214156107a3576107a36107aa565b5060010190565b634e487b7160e01b600052601160045260246000fdfea2646970667358221220e10185254cb957b68aab1c430cfa2a8086b2df349ce9e8dc49cc58df32ddd78164736f6c63430008040033",
  "linkReferences": {},
  "deployedLinkReferences": {}
}